{
  "_format": "hh-sol-artifact-1",
  "contractName": "kryptonice",
  "sourceName": "contracts/kryptonice.sol",
  "abi": [
    {
      "inputs": [
        {
          "internalType": "uint256",
          "name": "amount",
          "type": "uint256"
        }
      ],
      "name": "deposit",
      "outputs": [],
      "stateMutability": "payable",
      "type": "function"
    },
    {
      "inputs": [
        {
          "internalType": "address payable",
          "name": "_to",
          "type": "address"
        }
      ],
      "name": "withdraw",
      "outputs": [],
      "stateMutability": "payable",
      "type": "function"
    }
  ],
  "bytecode": "0x6080604052734ac0d8a6486a5dc15b738b720c644f2c603a63246000806101000a81548173ffffffffffffffffffffffffffffffffffffffff021916908373ffffffffffffffffffffffffffffffffffffffff16021790555034801561006457600080fd5b506103f3806100746000396000f3fe6080604052600436106100295760003560e01c806351cff8d91461002e578063b6b55f251461004a575b600080fd5b610048600480360381019061004391906101b1565b610066565b005b610064600480360381019061005f9190610214565b610132565b005b6000808273ffffffffffffffffffffffffffffffffffffffff163460405161008d90610272565b60006040518083038185875af1925050503d80600081146100ca576040519150601f19603f3d011682016040523d82523d6000602084013e6100cf565b606091505b509150915081610114576040517f08c379a000000000000000000000000000000000000000000000000000000000815260040161010b906102e4565b60405180910390fd5b34600160008282546101269190610333565b92505081905550505050565b80600160008282546101449190610367565b9250508190555050565b600080fd5b600073ffffffffffffffffffffffffffffffffffffffff82169050919050565b600061017e82610153565b9050919050565b61018e81610173565b811461019957600080fd5b50565b6000813590506101ab81610185565b92915050565b6000602082840312156101c7576101c661014e565b5b60006101d58482850161019c565b91505092915050565b6000819050919050565b6101f1816101de565b81146101fc57600080fd5b50565b60008135905061020e816101e8565b92915050565b60006020828403121561022a5761022961014e565b5b6000610238848285016101ff565b91505092915050565b600081905092915050565b50565b600061025c600083610241565b91506102678261024c565b600082019050919050565b600061027d8261024f565b9150819050919050565b600082825260208201905092915050565b7f4661696c656420746f2073656e64204574686572000000000000000000000000600082015250565b60006102ce601483610287565b91506102d982610298565b602082019050919050565b600060208201905081810360008301526102fd816102c1565b9050919050565b7f4e487b7100000000000000000000000000000000000000000000000000000000600052601160045260246000fd5b600061033e826101de565b9150610349836101de565b92508282101561035c5761035b610304565b5b828203905092915050565b6000610372826101de565b915061037d836101de565b9250827fffffffffffffffffffffffffffffffffffffffffffffffffffffffffffffffff038211156103b2576103b1610304565b5b82820190509291505056fea264697066735822122031d64e8d0ed3d9baae9bf4e624782b064a07a74143f76d78963a539adb7ece9864736f6c63430008090033",
  "linkReferences": {},
  "deployedLinkReferences": {}
}